:020000020000FC
:107E0000E1E019E0B9D004FF19F00FEE002E8DD09B
:107E100004B6F4BF01FC04C010E0EBD00C940000E9
:107E20001EE0E7D030E03093C50030E13093C4006D
:107E300032E03093C00036E03093C20038E1309336
:107E4000C10060E071E043E08BD0003219F04A9548
:107E5000D9F75FC085D0102F113459F481D0102F7D
:107E600073D003E0113809F004E072D000E170D063
:107E7000F1CF123411F444E105C0153429F470D067
:107E8000402F4A955ED0F2CF153539F469D0E02FF6
:107E900067D0F02FEE0FFF1F3FC0163569F4EE27B5
:107EA0005FD003FDE1605CD003FDE26059D058D0A3
:107EB0004BD019E05FD0DACF143661F43CD0DB014F
:107EC000542F4ED00D934A95E1F7452F3DD00E9497
:107ED000C43FCCCF143769F42ED036D004D038D07C
:107EE0004A95E1F7C3CF20FF049120FD17D03196CA
:107EF0000895153749F428D011E2E0E03BD0E2E0E4
:107F000039D0E4E037D0B2CF113531F41DD000E1E3
:107F10001FD018E06ED0FFCF17D0A8CFF999FECFB1
:107F2000F2BDE1BDF89A00B5089537B730FDFDCF39
:107F300017BFE895089514D013D0402F11D0202FEB
:107F400008950ED04A95E9F70BD0003211F704E1FD
:107F50003091C00035FFFCCF0093C600A89508956E
:107F60003091C00037FFFCCF0091C60034FDF8CF40
:107F7000A895089501D0ECCFFF2717BF049108956D
:107F8000489FF00121FD2FC0DB0120FD1CC0CF0167
:107F9000E8940D904A9511F01D904A953591301155
:107FA0006894359131116894329711E0BEDF3296B2
:107FB000442379F7FC0126F413E0B7DF15E0B5DFC1
:107FC00011E1B3DF0895F43068F4A8DF302F0D918C
:107FD000031729F000BDFA9AF99AF999FECF319664
:107FE0004A9589F70895DB017EDF0D934A95E1F705
:107FF000089538E130936000109360000895C0CF79
:00000001FF
